:020000040800F2
:1000000000280020E50E0008690A00086F0A0008B1
:10001000750A00087B0A0008810A00080000000039
:10002000000000000000000000000000870A000837
:10003000930A0008000000009F0A0008AB0A0008AD
:100040002D0F00082D0F00082D0F00082D0F0008A0
:100050002D0F00082D0F00082D0F00082D0F000890
:100060002D0F00082D0F00082D0F00082D0F000880
:100070002D0F00082D0F00082D0F00082D0F000870
:100080002D0F00082D0F00082D0F00082D0F000860
:100090002D0F00082D0F00082D0F00082D0F000850
:1000A0002D0F00082D0F00082D0F00082D0F000840
:1000B000B90A00082D0F0008000000002D0F0008ED
:1000C0002D0F000800000000000000002D0F0008A8
:1000D000000000002D0F00082D0F00080000000098
:1000E0002D0F00082D0F00082D0F00080000000044
:1000F0000000000000000000000000000000000000
:0C01000000000000000000005FF808F1A3
:10010C0010B5054C237833B9044B13B10448AFF345
:10011C0000800123237010BD24000020000000008B
:10012C002C25000808B5034B1BB103490348AFF35A
:10013C00008008BD00000000280000202C250008CD
:10014C0080B483B000AF00237B6011E00D4A7B6864
:10015C00134401221A700C4A7B68134401221A7052
:10016C000A4A7B68134401221A707B6801337B6056
:10017C007B68022BEADD00BF00BF0C37BD4680BC9C
:10018C00704700BF440000204800002040000020C1
:10019C0080B582B000AF00237B602DE01A4A7B68EB
:1001AC0013441978194A7B6813440A461A70184A82
:1001BC007B6832F813301946164801F09DF9034656
:1001CC001946114A7B6813440A461A700E4A7B681A
:1001DC0013441A780D497B680B441B789A4208D15A
:1001EC00094A7B68134419780B4A7B6813440A4606
:1001FC001A707B6801337B607B68022BCEDD00BFFD
:10020C0000BF0837BD4680BD4400002048000020D8
:10021C0000000020000C01404000002080B483B09E
:10022C0000AF0346FB71FB79022B01D9002307E0D9
:10023C00FB79064AD35C002B0CBF01230023DBB2F5
:10024C0018460C37BD4680BC704700BF40000020EC
:10025C0080B500AF00F066FE00F042F800F0C8F880
:10026C0000F07AF8074801F0A3FD00F034F9FFF72D
:10027C0067FF192000F03EFC192000F063FC00F031
:10028C00B9F9FCE79800002080B582B000AF786027
:10029C007B681B68B3F1804F19D100F067FC0E4BE3
:1002AC001B68002B07D00C4B00221A6000F042FB9D
:1002BC00192000F01FFC094B1B68002B07D0074BC3
:1002CC0000221A60FFF764FF192000F03BFC00BF0E
:1002DC000837BD4680BD00BF7C0000208C0000208C
:1002EC0080B590B000AF07F1180328220021184602
:1002FC0002F00EF93B1D00221A605A609A60DA6017
:10030C001A610223BB610123BB621023FB62002331
:10031C007B6307F11803184601F01EF90346002B06
:10032C0001D000F0D3F80F237B600023BB600023C7
:10033C00FB6000233B6100237B613B1D00211846C1
:10034C0001F08AFB0346002B01D000F0BFF800BF80
:10035C004037BD4680BD000080B586B000AF07F1C8
:10036C00080300221A605A609A60DA603B46002249
:10037C001A605A601D4B4FF080421A601B4B41F6BD
:10038C003F725A60194B00229A60184B0922DA60AE
:10039C00164B00221A61154B00229A61134801F08A
:1003AC00B7FC0346002B01D000F090F84FF48053BB
:1003BC00BB6007F1080319460C4801F035FE0346F3
:1003CC00002B01D000F082F800233B6000237B60FF
:1003DC003B461946054802F00DF80346002B01D0A8
:1003EC0000F074F800BF1837BD4680BD980000209F
:1003FC0080B586B000AF07F1080300221A605A607E
:10040C009A60DA602E4B9B692D4A43F0040393618A
:10041C002B4B9B6903F004037B607B68284B9B6927
:10042C00274A43F008039361254B9B6903F00803AB
:10043C003B603B68002243F6FF71224801F073F8E1
:10044C0000224FF47041204801F06DF843F6FF7321
:10045C00BB600123FB6000233B6102237B6107F13E
:10046C0008031946174800F0CDFE0123BB6000239A
:10047C00FB6001233B6107F108031946124800F0A9
:10048C00C1FE0623BB600023FB6000233B6107F128
:10049C00080319460C4800F0B5FE4FF47043BB60DE
:1004AC000123FB6000233B6102237B6107F10803FE
:1004BC001946054800F0A6FE00BF1837BD4680BDA2
:1004CC000010024000080140000C014080B400AF55
:1004DC0072B600BFFEE780B500AF00F05FFC642091
:1004EC0000F0F4FA642000F005FB642000F016FB29
:1004FC0000BF80BD80B500AF3A4B1B68002B6BD0A2
:10050C00384B00221A60384B1B68002B0CBF0123A0
:10051C000023DBB21A46344B1A60642000F0FEFA5A
:10052C00324B1B68042B3CD0042B57DC022B02D023
:10053C00032B1BD052E02C4B1B68002B0CBF012350
:10054C000023DBB21A464FF48071294800F0EBFF10
:10055C00254B1B68002B0CBF01230023DBB21A4672
:10056C004FF40061224800F0DEFF38E01E4B1B68A0
:10057C00002B0CBF01230023DBB21A464FF4007191
:10058C001B4800F0D0FF184B1B68002B0CBF01233D
:10059C000023DBB21A464FF48051154800F0C3FF1C
:1005AC001DE0114B1B68002B0CBF01230023DBB299
:1005BC001A464FF480610E4800F0B5FF0A4B1B68D9
:1005CC00002B0CBF01230023DBB21A464FF4005161
:1005DC00074800F0A8FF02E000BF00E000BF00BF2A
:1005EC0080BD00BF840000205800002008000020BF
:1005FC000008014090B585B000AF854B1B68002BFF
:10060C0007D0834B00221A6000F094F9FA2000F016
:10061C0071FA0020FFF702FE0346002B1BD07D4B26
:10062C001B68002B1AD17B4B01221A607A4B1B687A
:10063C000133794A1360784B1B68042B02DD764B2F
:10064C0001221A6000F080FB734B1B68012B05D153
:10065C0000F0A4FB02E06F4B00221A606E4B1B688B
:10066C00013B032B00F2C98001A252F823F000BF1A
:10067C008D060008A50600081B0700089107000856
:10068C0000F0A8FB654B1B68DBB2184600F0CAF8FB
:10069C00012000F0EDF8B6E0FFF72CFF0120FFF78A
:1006AC00BDFD0346002B24D05A4B5B68002B23D195
:1006BC00584B01225A6000F029FB0246584B83FB31
:1006CC00021313449911D317C91A0B465B000B4440
:1006DC0059010B44D11A4B1C7B6000F021FB0446E2
:1006EC0000F028FB03461A462146786800F0F4FA1D
:1006FC0002E0484B00225A6000F008FB0346DBB2D4
:10070C00184600F08FF8022000F0B2F87BE0FFF7FB
:10071C00F1FE0120FFF782FD0346002B24D03D4B58
:10072C005B68002B23D13B4B01225A6000F0F8FA96
:10073C0002463B4B83FB021313449911D317C91A7E
:10074C000B465B000B4459010B44D11A4B1CBB608C
:10075C0000F0DCFA044600F0EDFA03461A46B968DC
:10076C00204600F0B9FA02E02A4B00225A6000F051
:10077C00D7FA0346DBB2184600F054F8032000F019
:10078C0077F840E0FFF7B6FE0120FFF747FD034680
:10079C00002B24D01F4B5B68002B23D11D4B012257
:1007AC005A6000F0C7FA02461D4B83FB0213134438
:1007BC009911D317C91A0B465B000B4459010B4412
:1007CC00D11A4B1CFB6000F0A1FA044600F0A8FA09
:1007DC000346FA681946204600F07EFA02E00D4BFB
:1007EC0000225A6000F0A6FA0346DBB2184600F06D
:1007FC0019F8042000F03CF805E0074B01221A60C0
:10080C0000F0CCFA00BF00BF1437BD4690BD00BF4E
:10081C007C0000204C0000200800002090000020EC
:10082C0003B57EA580B483B000AF0346FB71FB79A2
:10083C000D4AA2FB0323DB08DBB21A460B4B1A60F2
:10084C00FA79094BA3FB0213D9080B469B000B4406
:10085C005B00D31ADBB21A46044B5A6000BF0C374C
:10086C00BD4680BC704700BFCDCCCCCC5C0000201A
:10087C0080B483B000AF0346FB71054B00229A6035
:10088C00FB79034AD36000BF0C37BD4680BC704770
:10089C005C00002080B584B000AF7860234A7B6890
:1008AC0013441B78FB73FB7B03F00103DBB21A468A
:1008BC0001211F4800F037FEFB7B03F00203DBB283
:1008CC001A4602211A4800F02EFEFB7B03F00403AB
:1008DC00DBB21A460421164800F025FEFB7B03F020
:1008EC000803DBB21A460821114800F01CFEFB7B02
:1008FC0003F01003DBB21A4610210D4800F013FE72
:10090C00FB7B03F02003DBB21A462021084800F0E1
:10091C000AFEFB7B03F04003DBB21A46402104487D
:10092C0000F001FE00BF1037BD4680BD4425000815
:10093C000008014080B500AF01224FF480511848E7
:10094C0000F0F1FD01224FF40051154800F0EBFDD1
:10095C0001224FF48041124800F0E5FD01224FF4D2
:10096C0000410F4800F0DFFD0E4B1B680E4A52F899
:10097C0023301846FFF78EFF0A4B1B680B4A32F8E0
:10098C00133000221946064800F0CDFD054B1B68BC
:10099C00013303F00303034A136000BF80BD00BFA3
:1009AC00000C01406C0000205C0000205025000869
:1009BC0080B485B000AF154B9B69144A43F001031A
:1009CC009361124B9B6903F00103BB60BB680F4B37
:1009DC00DB690E4A43F08053D3610C4BDB6903F0A7
:1009EC0080537B607B680A4B5B68FB60FB6823F081
:1009FC00E063FB60FB6843F08063FB60044AFB68C8
:100A0C00536000BF1437BD4680BC704700100240D5
:100A1C000000014080B584B000AF78607B681B6833
:100A2C00B3F1804F13D10C4BDB690B4A43F001033C
:100A3C00D361094BDB6903F00103FB60FB68002207
:100A4C0000211C2000F0A7FB1C2000F0C0FB00BF05
:100A5C001037BD4680BD00BF0010024080B400AF0F
:100A6C00FEE780B400AFFEE780B400AFFEE780B4D1
:100A7C0000AFFEE780B400AFFEE780B400AF00BF6C
:100A8C00BD4680BC704780B400AF00BFBD4680BC83
:100A9C00704780B400AF00BFBD4680BC704780B5C6
:100AAC0000AF00F085FA00BF80BD000080B500AF3C
:100ABC00024801F0C9F900BF80BD00BF98000020BA
:100ACC0080B400AF00BFBD4680BC704780B483B01B
:100ADC0000AF7860054A7B681360054B00221A60F2
:100AEC0000BF0C37BD4680BC704700BF70000020B3
:100AFC007400002080B483B000AF7860054A7B6836
:100B0C001360054B00221A6000BF0C37BD4680BC39
:100B1C00704700BF780000207C00002080B483B0B8
:100B2C0000AF7860054A7B681360054B00221A60A1
:100B3C0000BF0C37BD4680BC704700BF8000002052
:100B4C008400002080B483B000AF7860054A7B68D5
:100B5C001360054B00221A6000BF0C37BD4680BCE9
:100B6C00704700BF880000208C00002080B400AFCC
:100B7C00214B1B68002B0BDD1F4B1B68013B1E4AD6
:100B8C0013601D4B1B68002B02DC1C4B01221A60EE
:100B9C001B4B1B68002B0BDD194B1B68013B184AC8
:100BAC001360174B1B68002B02DC164B01221A60DA
:100BBC00154B1B68002B0BDD134B1B68013B124ABA
:100BCC001360114B1B68002B02DC104B01221A60C6
:100BDC000F4B1B68002B0BDD0D4B1B68013B0C4AAC
:100BEC0013600B4B1B68002B02DC0A4B01221A60B2
:100BFC0000BFBD4680BC7047700000207400002010
:100C0C00780000207C000020800000208400002060
:100C1C00880000208C00002080B584B000AFF86004
:100C2C00B9607A60FB68002B0CBF01230023DBB298
:100C3C001A464FF480710F4800F075FCBB68002B0E
:100C4C000CBF01230023DBB21A464FF40071094894
:100C5C0000F069FC7B68002B0CBF01230023DBB286
:100C6C001A464FF48061034800F05DFC00BF10375A
:100C7C00BD4680BD0008014080B584B000AFF8606F
:100C8C00B9607A60FB68002B0CBF01230023DBB238
:100C9C001A464FF400610F4800F045FCBB68002B6E
:100CAC000CBF01230023DBB21A464FF480510948D4
:100CBC0000F039FC7B68002B0CBF01230023DBB256
:100CCC001A464FF40051034800F02DFC00BF1037BA
:100CDC00BD4680BD0008014080B485B000AFF8600F
:100CEC00B9607A60064AFB681360064ABB681360F9
:100CFC00054A7B68136000BF1437BD4680BC704743
:100D0C0010000020140000201800002080B400AF58
:100D1C00024B1B681846BD4680BC70471000002073
:100D2C0080B400AF024B1B681846BD4680BC7047B0
:100D3C001400002080B400AF024B1B681846BD465F
:100D4C0080BC70471800002080B500AF01224FF422
:100D5C008071114800F0E7FB01224FF400710E483E
:100D6C0000F0E1FB01224FF480610B4800F0DBFB4B
:100D7C0001224FF40061084800F0D5FB01224FF42A
:100D8C008051054800F0CFFB01224FF4005102487E
:100D9C0000F0C9FB00BF80BD0008014080B500AF6A
:100DAC00094B1B68094A1360094B00221A60012287
:100DBC0000210020FFF730FF002200210120FFF767
:100DCC005BFF00BF80BD00BF18000020900000201A
:100DDC009400002080B500AF394B1B68012B6DD1FE
:100DEC00374B00221A60374B1B68013B354A1360A6
:100DFC00354B1B68022B32D0022B5CDC002B02D053
:100E0C00012B16D057E0012200210020FFF704FF30
:100E1C00002200210120FFF72FFF2A4B1B68002B1B
:100E2C0044D1294B01221A60284B1B68254A1360B8
:100E3C003CE0002201210020FFF7EEFE0022002101
:100E4C000120FFF719FF1F4B1B68002B30D11E4BE5
:100E5C0002221A601E4B1B681A4A136028E0194BB9
:100E6C001A681A4B1B689A420ADD002200210120E5
:100E7C00FFF7D2FE012200210020FFF7FDFE09E062
:100E8C00002200210120FFF7C7FE002201210020D3
:100E9C00FFF7F2FE0B4B1B68002B0BD10A4B002209
:100EAC001A600C4B1B68074A136003E000BF02E09A
:100EBC0000BF00E000BF6420FFF708FE00BF80BD4C
:100ECC0074000020900000209400002014000020EA
:100EDC001000002018000020FFF7F2FD0B480C4911
:100EEC000C4A002302E0D458C4500433C4188C427A
:100EFC00F9D3094A094C002301E013600432A242E1
:100F0C00FBD301F0E1FAFFF7A3F9704700000020D2
:100F1C00240000208425000824000020E400002088
:100F2C00FEE7000080B500AF084B1B68074A43F092
:100F3C0010031360032000F023F90F2000F008F8D1
:100F4C00FFF736FD0023184680BD00BF002002408D
:100F5C0080B582B000AF7860124B1A68124B1B78C8
:100F6C0019464FF47A73B3FBF1F3B2FBF3F3184663
:100F7C0000F03BF90346002B01D001230EE07B6807
:100F8C000F2B0AD8002279684FF0FF3000F003F9DC
:100F9C00064A7B681360002300E0012318460837DB
:100FAC00BD4680BD0C000020200000201C0000204D
:100FBC0080B400AF054B1B781A46054B1B681344D5
:100FCC00034A136000BFBD4680BC70472000002060
:100FDC00E000002080B400AF024B1B681846BD46F1
:100FEC0080BC7047E000002080B485B000AF786012
:100FFC007B6803F00703FB600C4BDB68BB60BA68D3
:10100C004FF6FF031340BB60FB681A02BB68134327
:10101C0043F0BF6343F40033BB60044ABB68D36046
:10102C0000BF1437BD4680BC704700BF00ED00E028
:10103C0080B400AF044BDB681B0A03F007031846AF
:10104C00BD4680BC704700BF00ED00E080B483B0AB
:10105C0000AF0346FB7197F90730002B0BDBFB79D4
:10106C0003F01F02064997F907305B09012000FACB
:10107C0002F241F8232000BF0C37BD4680BC7047FC
:10108C0000E100E080B483B000AF03463960FB712F
:10109C0097F90730002B0ADB3B68DAB20C4997F959
:1010AC0007301201D2B20B4483F800230AE03B68EC
:1010BC00DAB20849FB7903F00F03043B1201D2B2F8
:1010CC000B441A7600BF0C37BD4680BC704700BF7E
:1010DC0000E100E000ED00E080B489B000AFF86002
:1010EC00B9607A60FB6803F00703FB61FB69C3F12D
:1010FC000703042B28BF0423BB61FB690433062BB5
:10110C0002D9FB69033B00E000237B614FF0FF3207
:10111C00BB6902FA03F3DA43BB681A407B699A4055
:10112C004FF0FF317B6901FA03F3D9437B680B4025
:10113C00134318462437BD4680BC704780B582B037
:10114C0000AF78607B68013BB3F1807F01D3012352
:10115C000FE00A4A7B68013B53600F214FF0FF30D0
:10116C00FFF790FF054B00229A60044B07221A6090
:10117C00002318460837BD4680BD00BF10E000E0D4
:10118C0080B582B000AF78607868FFF72DFF00BFA4
:10119C000837BD4680BD80B586B000AF0346B96048
:1011AC007A60FB7300237B61FFF742FF78617A68FA
:1011BC00B9687869FFF790FF024697F90F3011462E
:1011CC001846FFF75FFF00BF1837BD4680BD80B5DE
:1011DC0082B000AF0346FB7197F907301846FFF752
:1011EC0035FF00BF0837BD4680BD80B582B000AF6B
:1011FC0078607868FFF7A2FF034618460837BD46AB
:10120C0080BD000080B48BB000AF786039600023E3
:10121C007B6200233B6248E101227B6A02FA03F302
:10122C00FB613B681B68FA691340BB61BA69FB69D7
:10123C009A4240F037813B685B68A34A93425ED088
:10124C00A14A934275D8A14A934258D09F4A9342DF
:10125C006FD89F4A934252D09D4A934269D89D4A77
:10126C0093424CD09B4A934263D89B4A934246D0BC
:10127C00994A93425DD8122B2AD8122B59D801A225
:10128C0052F823F00B130008E5120008F7120008BF
:10129C00391300083F1300083F1300083F130008E0
:1012AC003F1300083F1300083F1300083F130008CA
:1012BC003F1300083F1300083F1300083F130008BA
:1012CC003F1300083F130008ED120008011300083B
:1012DC00824A934213D02CE03B68DB683B6229E0E6
:1012EC003B68DB6804333B6224E03B68DB68083313
:1012FC003B621FE03B68DB680C333B621AE03B68E7
:10130C009B68002B02D104233B6213E03B689B6873
:10131C00012B05D108233B627B68FA691A6109E04D
:10132C0008233B627B68FA695A6103E000233B6245
:10133C0000E000BFBB69FF2B01D87B6801E07B6834
:10134C0004337B61BB69FF2B02D87B6A9B0002E0F4
:10135C007B6A083B9B003B617B691A680F213B69E8
:10136C0001FA03F3DB431A40396A3B6901FA03F3D0
:10137C001A437B691A603B685B6803F08053002B4F
:10138C0000F09080564B9B69554A43F001039361E2
:10139C00534B9B6903F00103BB60BB68514A7B6AEA
:1013AC009B08023352F82330FB607B6A03F0030383
:1013BC009B000F2202FA03F3DB43FA681340FB6035
:1013CC007B68494A93420DD07B68484A934207D0C8
:1013DC007B68474A934201D1022304E0032302E0D5
:1013EC00012300E000237A6A02F00302920093408A
:1013FC00FA681343FB603B497B6A9B080233FA682B
:10140C0041F823203B685B6803F48013002B06D063
:10141C00384B9A683749BB6913438B6006E0354BF0
:10142C009A68BB69DB43334913408B603B685B684C
:10143C0003F40013002B06D02E4BDA682D49BB6940
:10144C001343CB6006E02B4BDA68BB69DB432949BD
:10145C001340CB603B685B6803F40033002B06D071
:10146C00244B5A682349BB6913434B6006E0214B5C
:10147C005A68BB69DB431F4913404B603B685B6890
:10148C0003F48033002B06D01A4B1A681949BB6938
:10149C0013430B6006E0174B1A68BB69DB43154915
:1014AC0013400B607B6A01337B623B681A687B6A72
:1014BC0022FA03F3002B7FF4AFAE00BF00BF2C3732
:1014CC00BD4680BC704700BF0000321000003110D8
:1014DC00000022100000211000001210000011105A
:1014EC00001002400000014000080140000C0140C7
:1014FC00001001400004014080B485B000AF78605A
:10150C000B467B807B689A687B881340002B02D04B
:10151C000123FB7301E00023FB73FB7B184614379C
:10152C00BD4680BC704780B483B000AF78600B467A
:10153C007B8013467B707B78002B03D07A887B688A
:10154C001A6103E07B881A047B681A6100BF0C37B0
:10155C00BD4680BC7047000080B586B000AF786097
:10156C007B68002B01D101236CE27B681B6803F0C4
:10157C000103002B00F08780924B5B6803F00C0397
:10158C00042B0CD08F4B5B6803F00C03082B12D18F
:10159C008C4B5B6803F48033B3F5803F0BD1894BE4
:1015AC001B6803F40033002B6CD07B685B68002B4A
:1015BC0068D1012346E27B685B68B3F5803F06D1B6
:1015CC00804B1B687F4A43F4803313602EE07B68AA
:1015DC005B68002B0CD17B4B1B687A4A23F480335D
:1015EC001360784B1B68774A23F4802313601DE04B
:1015FC007B685B68B3F5A02F0CD1724B1B68714AEA
:10160C0043F4802313606F4B1B686E4A43F48033A2
:10161C0013600BE06B4B1B686A4A23F48033136036
:10162C00684B1B68674A23F4802313607B685B68F4
:10163C00002B13D0FFF7CEFC386108E0FFF7CAFC93
:10164C0002463B69D31A642B01D90323FAE15D4BA3
:10165C001B6803F40033002BF0D014E0FFF7BAFC46
:10166C00386108E0FFF7B6FC02463B69D31A642BDD
:10167C0001D90323E6E1534B1B6803F40033002B21
:10168C00F0D100E000BF7B681B6803F00203002B65
:10169C0063D04C4B5B6803F00C03002B0BD0494B15
:1016AC005B6803F00C03082B1CD1464B5B6803F4FE
:1016BC008033002B16D1434B1B6803F00203002B25
:1016CC0005D07B681B69012B01D00123BAE13D4B8E
:1016DC001B6823F0F8027B685B69DB003949134314
:1016EC000B603AE07B681B69002B20D0364B012243
:1016FC001A60FFF76FFC386108E0FFF76BFC0246DD
:10170C003B69D31A022B01D903239BE12D4B1B6898
:10171C0003F00203002BF0D02A4B1B6823F0F802D5
:10172C007B685B69DB00274913430B6015E0264B94
:10173C0000221A60FFF74EFC386108E0FFF74AFC04
:10174C0002463B69D31A022B01D903237AE11D4BC4
:10175C001B6803F00203002BF0D17B681B6803F0BD
:10176C000803002B3AD07B689B69002B19D0174BD0
:10177C0001221A60FFF72EFC386108E0FFF72AFC03
:10178C0002463B69D31A022B01D903235AE10D4BB4
:10179C005B6A03F00203002BF0D0012000F09AFAF0
:1017AC001CE00A4B00221A60FFF714FC38610FE0B2
:1017BC00FFF710FC02463B69D31A022B08D903230E
:1017CC0040E100BF0010024000004242800442424F
:1017DC009E4B5B6A03F00203002BE9D17B681B680C
:1017EC0003F00403002B00F0A6800023FB75974B3D
:1017FC00DB6903F08053002B0DD1944BDB69934ACA
:10180C0043F08053D361914BDB6903F08053BB6091
:10181C00BB680123FB758E4B1B6803F48073002B94
:10182C0018D18B4B1B688A4A43F480731360FFF703
:10183C00D1FB386108E0FFF7CDFB02463B69D31AB8
:10184C00642B01D90323FDE0814B1B6803F48073E7
:10185C00002BF0D07B68DB68012B06D17B4B1B6A1D
:10186C007A4A43F0010313622DE07B68DB68002B9E
:10187C000CD1764B1B6A754A23F001031362734B30
:10188C001B6A724A23F0040313621CE07B68DB685A
:10189C00052B0CD16D4B1B6A6C4A43F0040313628D
:1018AC006A4B1B6A694A43F0010313620BE0674BF6
:1018BC001B6A664A23F001031362644B1B6A634A7A
:1018CC0023F0040313627B68DB68002B15D0FFF751
:1018DC0081FB38610AE0FFF77DFB02463B69D31AB6
:1018EC0041F28832934201D90323ABE0574B1B6A78
:1018FC0003F00203002BEED014E0FFF76BFB386112
:10190C000AE0FFF767FB02463B69D31A41F28832C3
:10191C00934201D9032395E04C4B1B6A03F002035D
:10192C00002BEED1FB7D012B05D1484BDB69474ADF
:10193C0023F08053D3617B68DB69002B00F081803E
:10194C00424B5B6803F00C03082B61D07B68DB69AE
:10195C00022B46D13F4B00221A60FFF73BFB38614C
:10196C0008E0FFF737FB02463B69D31A022B01D97B
:10197C00032367E0354B1B6803F00073002BF0D199
:10198C007B681B6AB3F5803F08D1304B5B6823F44E
:10199C0000327B689B682D4913434B602B4B5B6873
:1019AC0023F474127B68196A7B685B6A0B432749C2
:1019BC0013434B60274B01221A60FFF70BFB386176
:1019CC0008E0FFF707FB02463B69D31A022B01D94B
:1019DC00032337E01D4B1B6803F00073002BF0D082
:1019EC002FE01C4B00221A60FFF7F4FA386108E074
:1019FC00FFF7F0FA02463B69D31A022B01D90323F5
:101A0C0020E0124B1B6803F00073002BF0D118E0A0
:101A1C007B68DB69012B01D1012313E00B4B5B6865
:101A2C00FB60FB6803F480327B681B6A9A4206D128
:101A3C00FB6803F470127B685B6A9A4201D0012345
:101A4C0000E0002318461837BD4680BD0010024048
:101A5C00007000406000424280B584B000AF7860F6
:101A6C0039607B68002B01D10123D0E06A4B1B68E5
:101A7C0003F007033A689A4210D9674B1B6823F0AE
:101A8C00070265493B6813430B60634B1B6803F00B
:101A9C0007033A689A4201D00123B8E07B681B68BF
:101AAC0003F00203002B20D07B681B6803F00403B7
:101ABC00002B05D0594B5B68584A43F4E0635360E4
:101ACC007B681B6803F00803002B05D0534B5B6845
:101ADC00524A43F460535360504B5B6823F0F0025E
:101AEC007B689B684D4913434B607B681B6803F014
:101AFC000103002B40D07B685B68012B07D1474B5F
:101B0C001B6803F40033002B15D101237FE07B68A5
:101B1C005B68022B07D1414B1B6803F00073002B51
:101B2C0009D1012373E03D4B1B6803F00203002B2A
:101B3C0001D101236BE0394B5B6823F003027B6816
:101B4C005B68364913434B60FFF744FAF8600AE0D0
:101B5C00FFF740FA0246FB68D31A41F288329342EF
:101B6C0001D9032353E02D4B5B6803F00C027B6817
:101B7C005B689B009A42EBD1274B1B6803F0070371
:101B8C003A689A4210D2244B1B6823F00702224970
:101B9C003B6813430B60204B1B6803F007033A6848
:101BAC009A4201D0012332E07B681B6803F00403E6
:101BBC00002B08D0194B5B6823F4E0627B68DB6870
:101BCC00164913434B607B681B6803F00803002B1A
:101BDC0009D0124B5B6823F460527B681B69DB00F5
:101BEC000E4913434B6000F021F802460B4B5B6827
:101BFC001B0903F00F030A49CB5C22FA03F3094AD1
:101C0C001360094B1B681846FFF7A2F9002318460E
:101C1C001037BD4680BD00BF0020024000100240BE
:101C2C00582500080C0000201C00002080B487B050
:101C3C0000AF0023FB600023BB6000237B6100230B
:101C4C007B6000233B611E4B5B68FB60FB6803F011
:101C5C000C03042B02D0082B03D027E0194B3B615B
:101C6C0027E0FB689B0C03F00F03174AD35C7B60E7
:101C7C00FB6803F48033002B10D0114B5B685B0CBA
:101C8C0003F00103114AD35CBB607B680D4A02FB75
:101C9C0003F2BB68B2FBF3F37B6104E07B680C4A94
:101CAC0002FB03F37B617B693B6102E0054B3B610B
:101CBC0000BF3B6918461C37BD4680BC704700BF4F
:101CCC000010024000127A006825000878250008F0
:101CDC0000093D0080B485B000AF78600A4B1B68EA
:101CEC000A4AA2FB03235B0A7A6802FB03F3FB603C
:101CFC0000BFFB685A1EFA60002BF9D100BF00BF71
:101D0C001437BD4680BC70470C000020D34D6210C8
:101D1C0080B582B000AF78607B68002B01D10123C5
:101D2C0041E07B6893F83D30DBB2002B06D17B6839
:101D3C00002283F83C207868FEF76CFE7B68022258
:101D4C0083F83D207B681A687B680433194610467B
:101D5C0000F056FA7B68012283F846207B6801224A
:101D6C0083F83E207B68012283F83F207B680122A8
:101D7C0083F840207B68012283F841207B68012294
:101D8C0083F842207B68012283F843207B68012280
:101D9C0083F844207B68012283F845207B6801226C
:101DAC0083F83D20002318460837BD4680BD00004F
:101DBC0080B485B000AF78607B6893F83D30DBB2BF
:101DCC00012B01D0012335E07B68022283F83D20F2
:101DDC007B681B68DA687B681B6842F00102DA607A
:101DEC007B681B68164A934209D07B681B68B3F169
:101DFC00804F04D07B681B68124A934211D17B68D8
:101E0C001B689B6803F00703FB60FB68062B10D074
:101E1C007B681B681A687B681B6842F001021A60B9
:101E2C0007E07B681B681A687B681B6842F001023C
:101E3C001A60002318461437BD4680BC704700BF9B
:101E4C00002C01400004004080B584B000AF7860E5
:101E5C007B681B68DB68FB607B681B681B69BB606D
:101E6C00BB6803F00203002B20D0FB6803F00203D5
:101E7C00002B1BD07B681B686FF002021A617B6819
:101E8C0001221A777B681B689B6903F00303002B04
:101E9C0003D0786800F098F905E0786800F08BF9C9
:101EAC00786800F09AF97B6800221A77BB6803F017
:101EBC000403002B20D0FB6803F00403002B1BD081
:101ECC007B681B686FF004021A617B6802221A7728
:101EDC007B681B689B6903F44073002B03D0786804
:101EEC0000F072F905E0786800F065F9786800F0A8
:101EFC0074F97B6800221A77BB6803F00803002B87
:101F0C0020D0FB6803F00803002B1BD07B681B68F8
:101F1C006FF008021A617B6804221A777B681B68D1
:101F2C00DB6903F00303002B03D0786800F04CF955
:101F3C0005E0786800F03FF9786800F04EF97B68AE
:101F4C0000221A77BB6803F01003002B20D0FB682B
:101F5C0003F01003002B1BD07B681B686FF0100282
:101F6C001A617B6808221A777B681B68DB6903F4AB
:101F7C004073002B03D0786800F026F905E07868F0
:101F8C0000F019F9786800F028F97B6800221A77BC
:101F9C00BB6803F00103002B0CD0FB6803F00103BA
:101FAC00002B07D07B681B686FF001021A61786800
:101FBC00FEF76AF9BB6803F08003002B0CD0FB68BA
:101FCC0003F08003002B07D07B681B686FF0800246
:101FDC001A61786800F06FFABB6803F04003002BBD
:101FEC000CD0FB6803F04003002B07D07B681B6808
:101FFC006FF040021A61786800F0F8F8BB6803F0E3
:10200C002003002B0CD0FB6803F02003002B07D01F
:10201C007B681B686FF020021A61786800F042FA46
:10202C0000BF1037BD4680BD80B584B000AF78606E
:10203C0039600023FB737B6893F83C30012B01D192
:10204C000223B4E07B68012283F83C207B680222E7
:10205C0083F83D207B681B689B68BB60BB6823F0E2
:10206C007703BB60BB6823F47F43BB607B681B6852
:10207C00BA689A603B681B68B3F5005F3ED0B3F555
:10208C00005F00F28780B3F5805F00F08680B3F5C7
:10209C00805F7FD8702B1AD0702B7BD8602B50D0E0
:1020AC00602B77D8502B3CD0502B73D8402B58D06A
:1020BC00402B6FD8302B64D0302B6BD8202B60D0BA
:1020CC00202B67D8002B5CD0102B5AD062E07B6899
:1020DC0018683B6899683B685A683B68DB6800F095
:1020EC006AF97B681B689B68BB60BB6843F077032D
:1020FC00BB607B681B68BA689A604FE07B681868A5
:10210C003B6899683B685A683B68DB6800F053F998
:10211C007B681B689A687B681B6842F480429A60F3
:10212C003CE07B6818683B6859683B68DB681A467A
:10213C0000F0CAF87B681B685021184600F021F9A2
:10214C002CE07B6818683B6859683B68DB681A466A
:10215C0000F0E8F87B681B686021184600F011F964
:10216C001CE07B6818683B6859683B68DB681A465A
:10217C0000F0AAF87B681B684021184600F001F9B2
:10218C000CE07B681A683B681B681946104600F027
:10219C00F8F803E00123FB7300E000BF7B68012229
:1021AC0083F83D207B68002283F83C20FB7B18469B
:1021BC001037BD4680BD80B483B000AF786000BFDF
:1021CC000C37BD4680BC704780B483B000AF7860DC
:1021DC0000BF0C37BD4680BC704780B483B000AFE5
:1021EC00786000BF0C37BD4680BC704780B483B0AC
:1021FC0000AF786000BF0C37BD4680BC7047000054
:10220C0080B485B000AF786039607B681B68FB6078
:10221C007B682B4A934207D07B68B3F1804F03D085
:10222C007B68284A934208D1FB6823F07003FB605B
:10223C003B685B68FA681343FB607B68204A9342F7
:10224C0007D07B68B3F1804F03D07B681D4A934263
:10225C0008D1FB6823F44073FB603B68DB68FA68C9
:10226C001343FB60FB6823F080023B685B691343FC
:10227C00FB607B68FA681A603B689A687B68DA6274
:10228C003B681A687B689A627B680D4A934203D15B
:10229C003B681A697B681A637B6801225A617B6808
:1022AC001B6903F00103002B05D07B681B6923F02D
:1022BC0001027B681A6100BF1437BD4680BC7047B1
:1022CC00002C01400004004080B487B000AFF860DF
:1022DC00B9607A60FB681B6A7B61FB681B6A23F040
:1022EC000102FB681A62FB689B693B613B6923F046
:1022FC00F0033B617B681B013A6913433B617B69CB
:10230C0023F00A037B617A69BB6813437B61FB682A
:10231C003A699A61FB687A691A6200BF1C37BD463C
:10232C0080BC704780B487B000AFF860B9607A6049
:10233C00FB681B6A7B61FB681B6A23F01002FB685D
:10234C001A62FB689B693B613B6923F470433B61F8
:10235C007B681B033A6913433B617B6923F0A00341
:10236C007B61BB681B017A6913437B61FB683A692B
:10237C009A61FB687A691A6200BF1C37BD4680BC43
:10238C00704780B485B000AF786039607B689B681B
:10239C00FB60FB6823F07003FB603A68FB68134337
:1023AC0043F00703FB607B68FA689A6000BF143740
:1023BC00BD4680BC704780B487B000AFF860B96090
:1023CC007A603B60FB689B687B617B6923F47F438D
:1023DC007B613B681A027B681A43BB6813437A69BA
:1023EC0013437B61FB687A699A6000BF1C37BD465A
:1023FC0080BC704780B485B000AF786039607B6872
:10240C0093F83C30012B01D1022341E07B6801227F
:10241C0083F83C207B68022283F83D207B681B6894
:10242C005B68FB607B681B689B68BB60FB6823F088
:10243C007003FB603B681B68FA681343FB607B68A6
:10244C001B68FA685A607B681B68144A934209D06F
:10245C007B681B68B3F1804F04D07B681B68104A03
:10246C0093420CD1BB6823F08003BB603B685B6874
:10247C00BA681343BB607B681B68BA689A607B6858
:10248C00012283F83D207B68002283F83C20002346
:10249C0018461437BD4680BC704700BF002C014065
:1024AC000004004080B483B000AF786000BF0C37EC
:1024BC00BD4680BC704780B483B000AF786000BF6D
:1024CC000C37BD4680BC704770B500260C4D0D4CCA
:1024DC00641BA410A64209D100F022F800260A4D74
:1024EC000A4C641BA410A64205D170BD55F8043BE0
:1024FC0098470136EEE755F8043B98470136F2E76A
:10250C007C2500087C2500087C2500088025000817
:10251C0003460244934200D1704703F8011BF9E7CC
:10252C00F8B500BFF8BC08BC9E467047F8B500BFB4
:08253C00F8BC08BC9E46704784
:10254400C0F9A4B0999282F8809000000010002095
:1025540000400080000000000000000001020304AD
:102564000607080902030405060708090A0B0C0DEF
:082574000E0F1010010200001F
:04257C003101000821
:042580000D01000841
:1025840001000200040000000100000000127A00B3
:10259400050000000200000003000000100000001D
:0425A4000100000032
:0400000508000EE5FC
:00000001FF
